:100000000C942A000C943F000C94BD000C943F000B
:100010000C943F000C943F000C943F000C943F0064
:100020000C943F000C943F000C943F000C943F0054
:100030000C943F000C943F000C943F000C943F0044
:100040000C943F000C943F000C943F000C943F0034
:100050000C943F0011241FBECFE5D4E0DEBFCDBF1E
:1000600010E0A0E6B0E0E8E8F2E002C005900D92F2
:10007000A63AB107D9F70E942C010C9442010C94C6
:100080000000982F92959F7095BB95B3906495BB97
:1000900095B39F7D95BB95B3906195BBEFE9FFE06C
:1000A0003197F1F700C0000095B39F7E95BB8F702C
:1000B00085BB85B3806485BB85B38F7D85BB85B3E8
:1000C000806185BB8FE99FE00197F1F700C00000D8
:1000D00085B38F7E85BB0895982F92959F7095BBB1
:1000E00095B39F7B95BB95B39F7D95BB95B3906171
:1000F00095BBEFE9FFE03197F1F700C0000095B341
:100100009F7E95BB8F7085BB85B38F7B85BB85B389
:100110008F7D85BB85B3806185BB8FE99FE00197AB
:10012000F1F700C0000085B38F7E85BB08950F9363
:100130001F93CF93DF938C01D62FC0E007C0F80147
:10014000EC0FF11D80810E944100CF5FCD17B8F305
:10015000DF91CF911F910F91089582E00E946C0072
:1001600088E20E946C0086E00E946C008CE00E9495
:100170006C0081E00E946C0008951F920F920FB6F0
:100180000F9211242F933F934F935F936F937F931D
:100190008F939F93AF93BF93EF93FF9381E00E9460
:1001A0006C0080E80E946C0063E180E690E00E94B1
:1001B0009700FF91EF91BF91AF919F918F917F91A8
:1001C0006F915F914F913F912F910F900FBE0F90C4
:1001D0001F9018958FE39CE90197F1F700C000008C
:1001E00081E00E946C0080E80E946C006EE084E771
:1001F00090E00E94970080EC0E946C006FE083E822
:1002000090E00E94970084E90E946C0068E083E916
:1002100090E00E94970084ED0E946C0068E08CE9F9
:1002200090E00E9497008BB380638BBB9FEF29E621
:1002300088E1915020408040E1F700C000008BB37E
:100240008F7C8BBB9FEF29E688E191502040804056
:10025000E1F700C00000089578948BB7806C8BBFE5
:1002600085B7886085BF8FEF84BB80E38ABB81B38D
:10027000877F81BB82B3886082BB0E94AD000E94F1
:08028000EA00FFCFF894FFCF64
:10028800596F752061726520696E205468657261C6
:100298007079210053415241534F20505654204CFD
:1002A80054440053454C454354204F5054494F4EF5
:1002B800533A003E5448455241505900534554540E
:0602C800494E47530000FF
:00000001FF
